{"abi":[{"type":"constructor","inputs":[{"name":"_owner","type":"address","internalType":"address"}],"stateMutability":"nonpayable"},{"type":"receive","stateMutability":"payable"},{"type":"function","name":"compareStrings","inputs":[{"name":"a","type":"string","internalType":"string"},{"name":"b","type":"string","internalType":"string"}],"outputs":[{"name":"","type":"bool","internalType":"bool"}],"stateMutability":"pure"},{"type":"function","name":"confirmProposal","inputs":[{"name":"proposalId","type":"uint256","internalType":"uint256"}],"outputs":[],"stateMutability":"nonpayable"},{"type":"function","name":"confirmations","inputs":[{"name":"","type":"uint256","internalType":"uint256"},{"name":"","type":"address","internalType":"address"}],"outputs":[{"name":"","type":"bool","internalType":"bool"}],"stateMutability":"view"},{"type":"function","name":"deposit","inputs":[],"outputs":[{"name":"","type":"uint256","internalType":"uint256"}],"stateMutability":"view"},{"type":"function","name":"deposits","inputs":[{"name":"","type":"address","internalType":"address"}],"outputs":[{"name":"","type":"uint256","internalType":"uint256"}],"stateMutability":"view"},{"type":"function","name":"executeAddOwner","inputs":[{"name":"proposalId","type":"uint256","internalType":"uint256"}],"outputs":[],"stateMutability":"nonpayable"},{"type":"function","name":"executeProposal","inputs":[{"name":"proposalId","type":"uint256","internalType":"uint256"}],"outputs":[],"stateMutability":"nonpayable"},{"type":"function","name":"executeRemoveOwner","inputs":[{"name":"proposalId","type":"uint256","internalType":"uint256"}],"outputs":[],"stateMutability":"nonpayable"},{"type":"function","name":"executeRequiredChange","inputs":[{"name":"proposalId","type":"uint256","internalType":"uint256"}],"outputs":[],"stateMutability":"nonpayable"},{"type":"function","name":"executeSetDeposit","inputs":[{"name":"proposalId","type":"uint256","internalType":"uint256"}],"outputs":[],"stateMutability":"nonpayable"},{"type":"function","name":"findAddress","inputs":[{"name":"_target","type":"address","internalType":"address"}],"outputs":[{"name":"","type":"int256","internalType":"int256"}],"stateMutability":"view"},{"type":"function","name":"getConfirmationsCount","inputs":[{"name":"proposalId","type":"uint256","internalType":"uint256"}],"outputs":[{"name":"","type":"uint256","internalType":"uint256"}],"stateMutability":"nonpayable"},{"type":"function","name":"getContractBalance","inputs":[],"outputs":[{"name":"","type":"uint256","internalType":"uint256"}],"stateMutability":"nonpayable"},{"type":"function","name":"isConfirmed","inputs":[{"name":"proposalId","type":"uint256","internalType":"uint256"}],"outputs":[{"name":"","type":"bool","internalType":"bool"}],"stateMutability":"nonpayable"},{"type":"function","name":"owners","inputs":[{"name":"","type":"uint256","internalType":"uint256"}],"outputs":[{"name":"","type":"address","internalType":"address"}],"stateMutability":"view"},{"type":"function","name":"ownersCount","inputs":[],"outputs":[{"name":"","type":"uint256","internalType":"uint256"}],"stateMutability":"view"},{"type":"function","name":"proposalCount","inputs":[],"outputs":[{"name":"","type":"uint256","internalType":"uint256"}],"stateMutability":"view"},{"type":"function","name":"proposals","inputs":[{"name":"","type":"uint256","internalType":"uint256"}],"outputs":[{"name":"destination","type":"address","internalType":"address"},{"name":"value","type":"uint256","internalType":"uint256"},{"name":"executed","type":"bool","internalType":"bool"},{"name":"name","type":"string","internalType":"string"},{"name":"typeName","type":"uint8","internalType":"enum MultiSig.ProposalType"}],"stateMutability":"view"},{"type":"function","name":"removeAtIndex","inputs":[{"name":"index","type":"uint256","internalType":"uint256"}],"outputs":[],"stateMutability":"nonpayable"},{"type":"function","name":"required","inputs":[],"outputs":[{"name":"","type":"uint256","internalType":"uint256"}],"stateMutability":"view"},{"type":"function","name":"submitProposal","inputs":[{"name":"destination","type":"address","internalType":"address"},{"name":"value","type":"uint256","internalType":"uint256"},{"name":"name","type":"string","internalType":"string"},{"name":"typeName","type":"uint8","internalType":"enum MultiSig.ProposalType"}],"outputs":[],"stateMutability":"nonpayable"},{"type":"function","name":"withdrawAll","inputs":[{"name":"proposalId","type":"uint256","internalType":"uint256"}],"outputs":[{"name":"","type":"uint256","internalType":"uint256"}],"stateMutability":"nonpayable"},{"type":"event","name":"ContractBalance","inputs":[{"name":"count","type":"uint256","indexed":false,"internalType":"uint256"}],"anonymous":false},{"type":"event","name":"DepositChanged","inputs":[],"anonymous":false},{"type":"event","name":"OwnersChanged","inputs":[],"anonymous":false},{"type":"event","name":"ProposalConfirmed","inputs":[{"name":"count","type":"uint256","indexed":false,"internalType":"uint256"}],"anonymous":false},{"type":"event","name":"ProposalCount","inputs":[{"name":"count","type":"uint256","indexed":false,"internalType":"uint256"}],"anonymous":false},{"type":"event","name":"ProposalCreated","inputs":[{"name":"proposalId","type":"uint256","indexed":false,"internalType":"uint256"}],"anonymous":false},{"type":"event","name":"ProposalExecuted","inputs":[{"name":"count","type":"uint256","indexed":false,"internalType":"uint256"}],"anonymous":false},{"type":"event","name":"Received","inputs":[{"name":"sender","type":"address","indexed":false,"internalType":"address"},{"name":"amount","type":"uint256","indexed":false,"internalType":"uint256"}],"anonymous":false},{"type":"event","name":"RequiredChanged","inputs":[],"anonymous":false},{"type":"event","name":"WithdrawAll","inputs":[],"anonymous":false}],"bytecode":{"object":"0x60806040526000600255600060055534801561001a57600080fd5b50604051620017b4380380620017b483398101604081905261003b916100b3565b6001600160a01b03811661004e57600080fd5b600080546001810182558180527f290decd9548b62a8d60345a988386fc84ba6bc95484008f6362f93160ef3e5630180546001600160a01b0319166001600160a01b03841617905560028054916100a4836100e3565b9091555050600180555061010a565b6000602082840312156100c557600080fd5b81516001600160a01b03811681146100dc57600080fd5b9392505050565b60006001820161010357634e487b7160e01b600052601160045260246000fd5b5060010190565b61169a806200011a6000396000f3fe6080604052600436106101395760003560e01c8063784547a7116100ab578063d0e30db01161006f578063d0e30db0146103f9578063da35c6641461040f578063dc8452cd14610425578063e0063f081461043b578063f4a4f4d21461045b578063fc7e286d1461047b57600080fd5b8063784547a714610363578063958e2d3114610383578063b9488546146103a3578063bce800e5146103b9578063bed34bba146103d957600080fd5b80633411c81c116100fd5780633411c81c1461028357806343a802ca146102ce5780636f9fb98a146102ee57806376a48c7114610303578063775a01ca146103235780637830557a1461034357600080fd5b8063013cf08b146101a1578063025e7c27146101db5780630309aca3146102135780630d61b519146102415780632dd262a41461026357600080fd5b3661019c57336000908152600760205260408120805434929061015d9084906111b6565b9091555050604080513381523460208201527f88a5966d370b9919b20f3e2c13ff65706f196a4e32cc2c12bf57088f88525874910160405180910390a1005b600080fd5b3480156101ad57600080fd5b506101c16101bc3660046111c9565b6104a8565b6040516101d295949392919061121c565b60405180910390f35b3480156101e757600080fd5b506101fb6101f63660046111c9565b610572565b6040516001600160a01b0390911681526020016101d2565b34801561021f57600080fd5b5061023361022e3660046112af565b61059c565b6040519081526020016101d2565b34801561024d57600080fd5b5061026161025c3660046111c9565b6105f9565b005b34801561026f57600080fd5b5061026161027e366004611374565b6107b2565b34801561028f57600080fd5b506102be61029e3660046113e2565b600660209081526000928352604080842090915290825290205460ff1681565b60405190151581526020016101d2565b3480156102da57600080fd5b506102616102e93660046111c9565b6107d2565b3480156102fa57600080fd5b50610233610824565b34801561030f57600080fd5b5061026161031e3660046111c9565b610864565b34801561032f57600080fd5b5061026161033e3660046111c9565b610972565b34801561034f57600080fd5b5061026161035e3660046111c9565b610a1c565b34801561036f57600080fd5b506102be61037e3660046111c9565b610aa7565b34801561038f57600080fd5b5061023361039e3660046111c9565b610ad0565b3480156103af57600080fd5b5061023360025481565b3480156103c557600080fd5b506102336103d43660046111c9565b610c8d565b3480156103e557600080fd5b506102be6103f436600461140e565b610d40565b34801561040557600080fd5b5061023360035481565b34801561041b57600080fd5b5061023360055481565b34801561043157600080fd5b5061023360015481565b34801561044757600080fd5b506102616104563660046111c9565b610d9a565b34801561046757600080fd5b506102616104763660046111c9565b610e5b565b34801561048757600080fd5b506102336104963660046112af565b60076020526000908152604090205481565b60046020526000908152604090208054600182015460028301546003840180546001600160a01b0390941694929360ff90921692916104e690611472565b80601f016020809104026020016040519081016040528092919081815260200182805461051290611472565b801561055f5780601f106105345761010080835404028352916020019161055f565b820191906000526020600020905b81548152906001019060200180831161054257829003601f168201915b5050506004909301549192505060ff1685565b6000818154811061058257600080fd5b6000918252602090912001546001600160a01b0316905081565b6000805b6000548110156105ef57826001600160a01b0316600082815481106105c7576105c76114a6565b6000918252602090912001546001600160a01b0316036105e75792915050565b6001016105a0565b5060001992915050565b610601610ec4565b61060a57600080fd5b60008181526004602052604090206002015460ff16156106825760405162461bcd60e51b815260206004820152602860248201527f546869732070726f706f73616c2068617320616c7265616479206265656e2065604482015267786563757465642160c01b60648201526084015b60405180910390fd5b61068b81610aa7565b61069457600080fd5b60008181526004602081905260408220015460ff16908160058111156106bc576106bc611206565b036106cf576106ca82610f21565b61077b565b60018160058111156106e3576106e3611206565b036106f1576106ca82610d9a565b600281600581111561070557610705611206565b03610713576106ca82610972565b600381600581111561072757610727611206565b03610735576106ca82610a1c565b600481600581111561074957610749611206565b03610757576106ca826107d2565b600581600581111561076b5761076b611206565b0361077b5761077982610ad0565b505b6040518281527f712ae1383f79ac853f8d882153778e0260ef8f03b504e2866e0593e04d2b291f9060200160405180910390a15050565b60006107c085858585610fe8565b90506107cb81610e5b565b5050505050565b60008181526004602052604080822060018082015460035560028201805460ff19169091179055905190917fc999397437f932ce90f9d0e8d896317910aaddb84472f1fa5d99369664d6340b91a15050565b60007f9eda563474dcf999b0332c34dedb9066a385693682ea01c43234fa4e95668a0e4760405161085791815260200190565b60405180910390a1504790565b60005481106108ab5760405162461bcd60e51b8152602060048201526013602482015272496e646578206f7574206f6620626f756e647360681b6044820152606401610679565b805b6000546108bc906001906114bc565b81101561093b5760006108d08260016111b6565b815481106108e0576108e06114a6565b600091825260208220015481546001600160a01b0390911691908390811061090a5761090a6114a6565b600091825260209091200180546001600160a01b0319166001600160a01b03929092169190911790556001016108ad565b50600080548061094d5761094d6114cf565b600082815260209020810160001990810180546001600160a01b031916905501905550565b6000818152600460205260408120805482546001810184558380527f290decd9548b62a8d60345a988386fc84ba6bc95484008f6362f93160ef3e5630180546001600160a01b0319166001600160a01b039092169190911790556002805491926109db836114e5565b909155505060028101805460ff191660011790556040517fd5209a16723cc0b875ee80416888e47b8f9554f534832bb41d5a2553d150c97c90600090a15050565b60008181526004602052604081208054909190610a41906001600160a01b031661059c565b90508060001914610a5557610a5581610864565b60028054906000610a65836114fe565b909155505060028201805460ff191660011790556040517fd5209a16723cc0b875ee80416888e47b8f9554f534832bb41d5a2553d150c97c90600090a1505050565b600080610ab383610c8d565b90506001548110610ac75750600192915050565b50600092915050565b60008181526004602052604080822090517f9eda563474dcf999b0332c34dedb9066a385693682ea01c43234fa4e95668a0e90610b109047815260200190565b60405180910390a16000610b22611132565b90506000610b308247611515565b905060005b600054811015610c4a5760035460076000808481548110610b5857610b586114a6565b60009182526020808320909101546001600160a01b0316835282019290925260400190205410610c42576000808281548110610b9657610b966114a6565b60009182526020822001546040516001600160a01b039091169185919081818185875af1925050503d8060008114610bea576040519150601f19603f3d011682016040523d82523d6000602084013e610bef565b606091505b5050905080610c405760405162461bcd60e51b815260206004820152601a60248201527f4661696c656420746f20657865637574652070726f706f73616c0000000000006044820152606401610679565b505b600101610b35565b5060028301805460ff191660011790556040517f5a648bc540f9bf9a33d1fe64d284e4a69a88aa95d4c7f8054d4bc85f877dcf4e90600090a15047949350505050565b600080805b600054811015610d0657600660008581526020019081526020016000206000808381548110610cc357610cc36114a6565b60009182526020808320909101546001600160a01b0316835282019290925260400190205460ff1615610cfe5781610cfa816114e5565b9250505b600101610c92565b506040518181527fc89a61381a9ac761ce68a80f49ff92775b2dd155310fcab8d1a1918c682cf6ae9060200160405180910390a192915050565b600081604051602001610d539190611537565b6040516020818303038152906040528051906020012083604051602001610d7a9190611537565b604051602081830303815290604052805190602001201490505b92915050565b6000818152600460205260408120905460018201541115610e175760405162461bcd60e51b815260206004820152603160248201527f4f776e65727320636f756e742063616e74206265206c657373207468616e206e60448201527065772072657175697265642076616c756560781b6064820152608401610679565b600180820154815560028201805460ff191690911790556040517f67cbe6d87663839e4061a6bfde34b0b7c8680f1fb4396d321777c04ea115faa290600090a15050565b610e63610ec4565b610e6c57600080fd5b6000818152600660209081526040808320338452825291829020805460ff1916600117905590518281527fe64bfc9134e77f27c77be5e192f56fe419ce2a51f2cd8b8f5ab01000b855f2ef910160405180910390a150565b6000805b600054811015610f1957336001600160a01b031660008281548110610eef57610eef6114a6565b6000918252602090912001546001600160a01b031603610f1157600191505090565b600101610ec8565b506000905090565b6000818152600460205260408082208054600182015492519193926001600160a01b03909116918381818185875af1925050503d8060008114610f80576040519150601f19603f3d011682016040523d82523d6000602084013e610f85565b606091505b5050905080610fd65760405162461bcd60e51b815260206004820152601a60248201527f4661696c656420746f20657865637574652070726f706f73616c0000000000006044820152606401610679565b50600201805460ff1916600117905550565b6000806040518060a00160405280876001600160a01b0316815260200186815260200160001515815260200185815260200184600581111561102c5761102c611206565b9052600554600090815260046020908152604091829020835181546001600160a01b0319166001600160a01b039091161781559083015160018201559082015160028201805460ff191691151591909117905560608201519192508291600382019061109890826115a4565b50608082015160048201805460ff191660018360058111156110bc576110bc611206565b02179055505060058054915060006110d3836114e5565b91905055507fc2c021f5d73c63c481d336fbbafec58f694fc45095f00b02d2deb8cca59afe07600160055461110891906114bc565b60405190815260200160405180910390a1600160055461112891906114bc565b9695505050505050565b600080805b60005481101561119a576003546007600080848154811061115a5761115a6114a6565b60009182526020808320909101546001600160a01b0316835282019290925260400190205410611192578161118e816114e5565b9250505b600101611137565b50919050565b634e487b7160e01b600052601160045260246000fd5b80820180821115610d9457610d946111a0565b6000602082840312156111db57600080fd5b5035919050565b60005b838110156111fd5781810151838201526020016111e5565b50506000910152565b634e487b7160e01b600052602160045260246000fd5b60018060a01b0386168152846020820152831515604082015260a06060820152600083518060a08401526112578160c08501602088016111e2565b601f01601f1916820160c00190506006831061128357634e487b7160e01b600052602160045260246000fd5b8260808301529695505050505050565b80356001600160a01b03811681146112aa57600080fd5b919050565b6000602082840312156112c157600080fd5b6112ca82611293565b9392505050565b634e487b7160e01b600052604160045260246000fd5b600082601f8301126112f857600080fd5b813567ffffffffffffffff80821115611313576113136112d1565b604051601f8301601f19908116603f0116810190828211818310171561133b5761133b6112d1565b8160405283815286602085880101111561135457600080fd5b836020870160208301376000602085830101528094505050505092915050565b6000806000806080858703121561138a57600080fd5b61139385611293565b935060208501359250604085013567ffffffffffffffff8111156113b657600080fd5b6113c2878288016112e7565b9250506060850135600681106113d757600080fd5b939692955090935050565b600080604083850312156113f557600080fd5b8235915061140560208401611293565b90509250929050565b6000806040838503121561142157600080fd5b823567ffffffffffffffff8082111561143957600080fd5b611445868387016112e7565b9350602085013591508082111561145b57600080fd5b50611468858286016112e7565b9150509250929050565b600181811c9082168061148657607f821691505b60208210810361119a57634e487b7160e01b600052602260045260246000fd5b634e487b7160e01b600052603260045260246000fd5b81810381811115610d9457610d946111a0565b634e487b7160e01b600052603160045260246000fd5b6000600182016114f7576114f76111a0565b5060010190565b60008161150d5761150d6111a0565b506000190190565b60008261153257634e487b7160e01b600052601260045260246000fd5b500490565b600082516115498184602087016111e2565b9190910192915050565b601f82111561159f576000816000526020600020601f850160051c8101602086101561157c5750805b601f850160051c820191505b8181101561159b57828155600101611588565b5050505b505050565b815167ffffffffffffffff8111156115be576115be6112d1565b6115d2816115cc8454611472565b84611553565b602080601f83116001811461160757600084156115ef5750858301515b600019600386901b1c1916600185901b17855561159b565b600085815260208120601f198616915b8281101561163657888601518255948401946001909101908401611617565b50858210156116545787850151600019600388901b60f8161c191681555b5050505050600190811b0190555056fea26469706673582212205e2db49ad09308777aa1c4e761a6e5cb53e182e80855a56889b39d134d9d30a264736f6c63430008180033","linkReferences":{}},"methodIdentifiers":{"compareStrings(string,string)":"bed34bba","confirmProposal(uint256)":"f4a4f4d2","confirmations(uint256,address)":"3411c81c","deposit()":"d0e30db0","deposits(address)":"fc7e286d","executeAddOwner(uint256)":"775a01ca","executeProposal(uint256)":"0d61b519","executeRemoveOwner(uint256)":"7830557a","executeRequiredChange(uint256)":"e0063f08","executeSetDeposit(uint256)":"43a802ca","findAddress(address)":"0309aca3","getConfirmationsCount(uint256)":"bce800e5","getContractBalance()":"6f9fb98a","isConfirmed(uint256)":"784547a7","owners(uint256)":"025e7c27","ownersCount()":"b9488546","proposalCount()":"da35c664","proposals(uint256)":"013cf08b","removeAtIndex(uint256)":"76a48c71","required()":"dc8452cd","submitProposal(address,uint256,string,uint8)":"2dd262a4","withdrawAll(uint256)":"958e2d31"},"id":0}